{
    "_format": "hh-sol-artifact-1",
    "contractName": "ItemManager",
    "sourceName": "contracts/ItemManager.sol",
    "abi": [
        {
            "anonymous": false,
            "inputs": [
                {
                    "indexed": true,
                    "internalType": "address",
                    "name": "previousOwner",
                    "type": "address"
                },
                {
                    "indexed": true,
                    "internalType": "address",
                    "name": "newOwner",
                    "type": "address"
                }
            ],
            "name": "OwnershipTransferred",
            "type": "event"
        },
        {
            "anonymous": false,
            "inputs": [
                {
                    "indexed": false,
                    "internalType": "uint256",
                    "name": "_itemIndex",
                    "type": "uint256"
                },
                {
                    "indexed": false,
                    "internalType": "uint256",
                    "name": "_step",
                    "type": "uint256"
                },
                {
                    "indexed": false,
                    "internalType": "address",
                    "name": "_itemAddress",
                    "type": "address"
                }
            ],
            "name": "SupplyChainStep",
            "type": "event"
        },
        {
            "inputs": [
                {
                    "internalType": "string",
                    "name": "_identifier",
                    "type": "string"
                },
                {
                    "internalType": "uint256",
                    "name": "_itemPrice",
                    "type": "uint256"
                }
            ],
            "name": "createItem",
            "outputs": [],
            "stateMutability": "nonpayable",
            "type": "function"
        },
        {
            "inputs": [
                {
                    "internalType": "uint256",
                    "name": "",
                    "type": "uint256"
                }
            ],
            "name": "items",
            "outputs": [
                {
                    "internalType": "contract Item",
                    "name": "_item",
                    "type": "address"
                },
                {
                    "internalType": "string",
                    "name": "_identifier",
                    "type": "string"
                },
                {
                    "internalType": "uint256",
                    "name": "_itemPrice",
                    "type": "uint256"
                },
                {
                    "internalType": "enum ItemManager.SupplyChainState",
                    "name": "_state",
                    "type": "uint8"
                }
            ],
            "stateMutability": "view",
            "type": "function"
        },
        {
            "inputs": [],
            "name": "owner",
            "outputs": [
                {
                    "internalType": "address",
                    "name": "",
                    "type": "address"
                }
            ],
            "stateMutability": "view",
            "type": "function"
        },
        {
            "inputs": [],
            "name": "renounceOwnership",
            "outputs": [],
            "stateMutability": "nonpayable",
            "type": "function"
        },
        {
            "inputs": [
                {
                    "internalType": "address",
                    "name": "newOwner",
                    "type": "address"
                }
            ],
            "name": "transferOwnership",
            "outputs": [],
            "stateMutability": "nonpayable",
            "type": "function"
        },
        {
            "inputs": [
                {
                    "internalType": "uint256",
                    "name": "_itemIndex",
                    "type": "uint256"
                }
            ],
            "name": "triggerDelivery",
            "outputs": [],
            "stateMutability": "nonpayable",
            "type": "function"
        },
        {
            "inputs": [
                {
                    "internalType": "uint256",
                    "name": "_itemIndex",
                    "type": "uint256"
                }
            ],
            "name": "triggerPayment",
            "outputs": [],
            "stateMutability": "payable",
            "type": "function"
        }
    ],
    "bytecode": "0x608060405234801561001057600080fd5b5061002d61002261003260201b60201c565b61003a60201b60201c565b6100fe565b600033905090565b60008060009054906101000a900473ffffffffffffffffffffffffffffffffffffffff169050816000806101000a81548173ffffffffffffffffffffffffffffffffffffffff021916908373ffffffffffffffffffffffffffffffffffffffff1602179055508173ffffffffffffffffffffffffffffffffffffffff168173ffffffffffffffffffffffffffffffffffffffff167f8be0079c531659141344cd1fd0a4f28419497f9722a3daafe3b4186f6b6457e060405160405180910390a35050565b611f028061010d6000396000f3fe6080604052600436106200007a5760003560e01c80638da5cb5b11620000555780638da5cb5b14620000e7578063bfb231d21462000117578063cd31831e146200015e578063f2fde38b146200018c576200007a565b8063715018a6146200007f578063800fb83f14620000995780638c55174214620000b9575b600080fd5b3480156200008c57600080fd5b5062000097620001ba565b005b620000b76004803603810190620000b1919062000f97565b6200024b565b005b348015620000c657600080fd5b50620000e56004803603810190620000df919062000f3d565b620004b8565b005b348015620000f457600080fd5b50620000ff6200076b565b6040516200010e91906200111c565b60405180910390f35b3480156200012457600080fd5b506200014360048036038101906200013d919062000f97565b62000794565b60405162000155949392919062001176565b60405180910390f35b3480156200016b57600080fd5b506200018a600480360381019062000184919062000f97565b62000881565b005b3480156200019957600080fd5b50620001b86004803603810190620001b2919062000f11565b62000b17565b005b620001c462000c1b565b73ffffffffffffffffffffffffffffffffffffffff16620001e46200076b565b73ffffffffffffffffffffffffffffffffffffffff16146200023d576040517f08c379a000000000000000000000000000000000000000000000000000000000815260040162000234906200127b565b60405180910390fd5b62000249600062000c23565b565b34600160008381526020019081526020016000206002015414620002a6576040517f08c379a00000000000000000000000000000000000000000000000000000000081526004016200029d9062001259565b60405180910390fd5b60006002811115620002e1577f4e487b7100000000000000000000000000000000000000000000000000000000600052602160045260246000fd5b6001600083815260200190815260200160002060030160009054906101000a900460ff1660028111156200033e577f4e487b7100000000000000000000000000000000000000000000000000000000600052602160045260246000fd5b1462000381576040517f08c379a0000000000000000000000000000000000000000000000000000000008152600401620003789062001215565b60405180910390fd5b600180600083815260200190815260200160002060030160006101000a81548160ff02191690836002811115620003e1577f4e487b7100000000000000000000000000000000000000000000000000000000600052602160045260246000fd5b02179055507fa4035636e99f06b7651a604c1019fa4e8779fe68ef27eeb74dff2de348f6199b816001600084815260200190815260200160002060030160009054906101000a900460ff16600281111562000465577f4e487b7100000000000000000000000000000000000000000000000000000000600052602160045260246000fd5b6001600085815260200190815260200160002060000160009054906101000a900473ffffffffffffffffffffffffffffffffffffffff16604051620004ad93929190620012bf565b60405180910390a150565b620004c262000c1b565b73ffffffffffffffffffffffffffffffffffffffff16620004e26200076b565b73ffffffffffffffffffffffffffffffffffffffff16146200053b576040517f08c379a000000000000000000000000000000000000000000000000000000000815260040162000532906200127b565b60405180910390fd5b6200056160405180606001604052806033815260200162001e9a60339139838362000ce7565b60003082600254604051620005769062000db3565b620005849392919062001139565b604051809103906000f080158015620005a1573d6000803e3d6000fd5b5090508060016000600254815260200190815260200160002060000160006101000a81548173ffffffffffffffffffffffffffffffffffffffff021916908373ffffffffffffffffffffffffffffffffffffffff1602179055508260016000600254815260200190815260200160002060010190805190602001906200062992919062000dc1565b508160016000600254815260200190815260200160002060020181905550600060016000600254815260200190815260200160002060030160006101000a81548160ff02191690836002811115620006aa577f4e487b7100000000000000000000000000000000000000000000000000000000600052602160045260246000fd5b02179055507fa4035636e99f06b7651a604c1019fa4e8779fe68ef27eeb74dff2de348f6199b60025460016000600254815260200190815260200160002060030160009054906101000a900460ff16600281111562000732577f4e487b7100000000000000000000000000000000000000000000000000000000600052602160045260246000fd5b836040516200074493929190620012bf565b60405180910390a1600260008154809291906200076190620014df565b9190505550505050565b60008060009054906101000a900473ffffffffffffffffffffffffffffffffffffffff16905090565b60016020528060005260406000206000915090508060000160009054906101000a900473ffffffffffffffffffffffffffffffffffffffff1690806001018054620007df9062001473565b80601f01602080910402602001604051908101604052809291908181526020018280546200080d9062001473565b80156200085e5780601f1062000832576101008083540402835291602001916200085e565b820191906000526020600020905b8154815290600101906020018083116200084057829003601f168201915b5050505050908060020154908060030160009054906101000a900460ff16905084565b6200088b62000c1b565b73ffffffffffffffffffffffffffffffffffffffff16620008ab6200076b565b73ffffffffffffffffffffffffffffffffffffffff161462000904576040517f08c379a0000000000000000000000000000000000000000000000000000000008152600401620008fb906200127b565b60405180910390fd5b600160028111156200093f577f4e487b7100000000000000000000000000000000000000000000000000000000600052602160045260246000fd5b6001600083815260200190815260200160002060030160009054906101000a900460ff1660028111156200099c577f4e487b7100000000000000000000000000000000000000000000000000000000600052602160045260246000fd5b14620009df576040517f08c379a0000000000000000000000000000000000000000000000000000000008152600401620009d6906200129d565b60405180910390fd5b60026001600083815260200190815260200160002060030160006101000a81548160ff0219169083600281111562000a40577f4e487b7100000000000000000000000000000000000000000000000000000000600052602160045260246000fd5b02179055507fa4035636e99f06b7651a604c1019fa4e8779fe68ef27eeb74dff2de348f6199b816001600084815260200190815260200160002060030160009054906101000a900460ff16600281111562000ac4577f4e487b7100000000000000000000000000000000000000000000000000000000600052602160045260246000fd5b6001600085815260200190815260200160002060000160009054906101000a900473ffffffffffffffffffffffffffffffffffffffff1660405162000b0c93929190620012bf565b60405180910390a150565b62000b2162000c1b565b73ffffffffffffffffffffffffffffffffffffffff1662000b416200076b565b73ffffffffffffffffffffffffffffffffffffffff161462000b9a576040517f08c379a000000000000000000000000000000000000000000000000000000000815260040162000b91906200127b565b60405180910390fd5b600073ffffffffffffffffffffffffffffffffffffffff168173ffffffffffffffffffffffffffffffffffffffff16141562000c0d576040517f08c379a000000000000000000000000000000000000000000000000000000000815260040162000c049062001237565b60405180910390fd5b62000c188162000c23565b50565b600033905090565b60008060009054906101000a900473ffffffffffffffffffffffffffffffffffffffff169050816000806101000a81548173ffffffffffffffffffffffffffffffffffffffff021916908373ffffffffffffffffffffffffffffffffffffffff1602179055508173ffffffffffffffffffffffffffffffffffffffff168173ffffffffffffffffffffffffffffffffffffffff167f8be0079c531659141344cd1fd0a4f28419497f9722a3daafe3b4186f6b6457e060405160405180910390a35050565b62000d8583838360405160240162000d0293929190620011ca565b6040516020818303038152906040527ff362ca59000000000000000000000000000000000000000000000000000000007bffffffffffffffffffffffffffffffffffffffffffffffffffffffff19166020820180517bffffffffffffffffffffffffffffffffffffffffffffffffffffffff838183161783525050505062000d8a565b505050565b60008151905060006a636f6e736f6c652e6c6f679050602083016000808483855afa5050505050565b610761806200173983390190565b82805462000dcf9062001473565b90600052602060002090601f01602090048101928262000df3576000855562000e3f565b82601f1062000e0e57805160ff191683800117855562000e3f565b8280016001018555821562000e3f579182015b8281111562000e3e57825182559160200191906001019062000e21565b5b50905062000e4e919062000e52565b5090565b5b8082111562000e6d57600081600090555060010162000e53565b5090565b600062000e8862000e828462001325565b620012fc565b90508281526020810184848401111562000ea157600080fd5b62000eae8482856200142e565b509392505050565b60008135905062000ec78162001704565b92915050565b600082601f83011262000edf57600080fd5b813562000ef184826020860162000e71565b91505092915050565b60008135905062000f0b816200171e565b92915050565b60006020828403121562000f2457600080fd5b600062000f348482850162000eb6565b91505092915050565b6000806040838503121562000f5157600080fd5b600083013567ffffffffffffffff81111562000f6c57600080fd5b62000f7a8582860162000ecd565b925050602062000f8d8582860162000efa565b9150509250929050565b60006020828403121562000faa57600080fd5b600062000fba8482850162000efa565b91505092915050565b62000fce8162001377565b82525050565b62000fdf81620013ca565b82525050565b62000ff081620013f2565b82525050565b62001001816200141a565b82525050565b600062001014826200135b565b62001020818562001366565b9350620010328185602086016200143d565b6200103d81620015e9565b840191505092915050565b600062001057601c8362001366565b91506200106482620015fa565b602082019050919050565b60006200107e60268362001366565b91506200108b8262001623565b604082019050919050565b6000620010a5601b8362001366565b9150620010b28262001672565b602082019050919050565b6000620010cc60208362001366565b9150620010d9826200169b565b602082019050919050565b6000620010f360108362001366565b91506200110082620016c4565b602082019050919050565b6200111681620013c0565b82525050565b600060208201905062001133600083018462000fc3565b92915050565b600060608201905062001150600083018662000fd4565b6200115f60208301856200110b565b6200116e60408301846200110b565b949350505050565b60006080820190506200118d600083018762000fe5565b8181036020830152620011a1818662001007565b9050620011b260408301856200110b565b620011c1606083018462000ff6565b95945050505050565b60006060820190508181036000830152620011e6818662001007565b90508181036020830152620011fc818562001007565b90506200120d60408301846200110b565b949350505050565b60006020820190508181036000830152620012308162001048565b9050919050565b6000602082019050818103600083015262001252816200106f565b9050919050565b60006020820190508181036000830152620012748162001096565b9050919050565b600060208201905081810360008301526200129681620010bd565b9050919050565b60006020820190508181036000830152620012b881620010e4565b9050919050565b6000606082019050620012d660008301866200110b565b620012e560208301856200110b565b620012f4604083018462000fc3565b949350505050565b6000620013086200131b565b9050620013168282620014a9565b919050565b6000604051905090565b600067ffffffffffffffff821115620013435762001342620015ba565b5b6200134e82620015e9565b9050602081019050919050565b600081519050919050565b600082825260208201905092915050565b60006200138482620013a0565b9050919050565b60008190506200139b82620016ed565b919050565b600073ffffffffffffffffffffffffffffffffffffffff82169050919050565b6000819050919050565b6000620013d782620013de565b9050919050565b6000620013eb82620013a0565b9050919050565b6000620013ff8262001406565b9050919050565b60006200141382620013a0565b9050919050565b600062001427826200138b565b9050919050565b82818337600083830152505050565b60005b838110156200145d57808201518184015260208101905062001440565b838111156200146d576000848401525b50505050565b600060028204905060018216806200148c57607f821691505b60208210811415620014a357620014a26200158b565b5b50919050565b620014b482620015e9565b810181811067ffffffffffffffff82111715620014d657620014d5620015ba565b5b80604052505050565b6000620014ec82620013c0565b91507fffffffffffffffffffffffffffffffffffffffffffffffffffffffffffffffff8214156200152257620015216200152d565b5b600182019050919050565b7f4e487b7100000000000000000000000000000000000000000000000000000000600052601160045260246000fd5b7f4e487b7100000000000000000000000000000000000000000000000000000000600052602160045260246000fd5b7f4e487b7100000000000000000000000000000000000000000000000000000000600052602260045260246000fd5b7f4e487b7100000000000000000000000000000000000000000000000000000000600052604160045260246000fd5b6000601f19601f8301169050919050565b7f4974656d206973206675727468657220696e2074686520636861696e00000000600082015250565b7f4f776e61626c653a206e6577206f776e657220697320746865207a65726f206160008201527f6464726573730000000000000000000000000000000000000000000000000000602082015250565b7f4f6e6c792066756c6c207061796d656e74732061636365707465640000000000600082015250565b7f4f776e61626c653a2063616c6c6572206973206e6f7420746865206f776e6572600082015250565b7f4974656d206973206e6f74207061696400000000000000000000000000000000600082015250565b600381106200170157620017006200155c565b5b50565b6200170f8162001377565b81146200171b57600080fd5b50565b6200172981620013c0565b81146200173557600080fd5b5056fe608060405234801561001057600080fd5b50604051610761380380610761833981810160405281019061003291906100b3565b816000819055508060028190555082600360006101000a81548173ffffffffffffffffffffffffffffffffffffffff021916908373ffffffffffffffffffffffffffffffffffffffff16021790555050505061017e565b60008151905061009881610150565b92915050565b6000815190506100ad81610167565b92915050565b6000806000606084860312156100c857600080fd5b60006100d686828701610089565b93505060206100e78682870161009e565b92505060406100f88682870161009e565b9150509250925092565b600061010d82610126565b9050919050565b600061011f82610102565b9050919050565b600073ffffffffffffffffffffffffffffffffffffffff82169050919050565b6000819050919050565b61015981610114565b811461016457600080fd5b50565b61017081610146565b811461017b57600080fd5b50565b6105d48061018d6000396000f3fe6080604052600436106100385760003560e01c80632986c0e5146102465780633c8da5881461027157806389794d001461029c57610241565b3661024157600060015414610082576040517f08c379a000000000000000000000000000000000000000000000000000000000815260040161007990610399565b60405180910390fd5b34600054146100c6576040517f08c379a00000000000000000000000000000000000000000000000000000000081526004016100bd906103d9565b60405180910390fd5b34600160008282546100d8919061043b565b925050819055506000600360009054906101000a900473ffffffffffffffffffffffffffffffffffffffff1673ffffffffffffffffffffffffffffffffffffffff163460025460405160240161012e91906103f9565b6040516020818303038152906040527f800fb83f000000000000000000000000000000000000000000000000000000007bffffffffffffffffffffffffffffffffffffffffffffffffffffffff19166020820180517bffffffffffffffffffffffffffffffffffffffffffffffffffffffff83818316178352505050506040516101b89190610382565b60006040518083038185875af1925050503d80600081146101f5576040519150601f19603f3d011682016040523d82523d6000602084013e6101fa565b606091505b505090508061023e576040517f08c379a0000000000000000000000000000000000000000000000000000000008152600401610235906103b9565b60405180910390fd5b50005b600080fd5b34801561025257600080fd5b5061025b6102c7565b60405161026891906103f9565b60405180910390f35b34801561027d57600080fd5b506102866102cd565b60405161029391906103f9565b60405180910390f35b3480156102a857600080fd5b506102b16102d3565b6040516102be91906103f9565b60405180910390f35b60025481565b60005481565b60015481565b60006102e482610414565b6102ee818561041f565b93506102fe81856020860161049b565b80840191505092915050565b600061031760148361042a565b9150610322826104fd565b602082019050919050565b600061033a602c8361042a565b915061034582610526565b604082019050919050565b600061035d601a8361042a565b915061036882610575565b602082019050919050565b61037c81610491565b82525050565b600061038e82846102d9565b915081905092915050565b600060208201905081810360008301526103b28161030a565b9050919050565b600060208201905081810360008301526103d28161032d565b9050919050565b600060208201905081810360008301526103f281610350565b9050919050565b600060208201905061040e6000830184610373565b92915050565b600081519050919050565b600081905092915050565b600082825260208201905092915050565b600061044682610491565b915061045183610491565b9250827fffffffffffffffffffffffffffffffffffffffffffffffffffffffffffffffff03821115610486576104856104ce565b5b828201905092915050565b6000819050919050565b60005b838110156104b957808201518184015260208101905061049e565b838111156104c8576000848401525b50505050565b7f4e487b7100000000000000000000000000000000000000000000000000000000600052601160045260246000fd5b7f4974656d206973207061696420616c7265616479000000000000000000000000600082015250565b7f546865207472616e73616374696f6e207761736e27742073756363657373667560008201527f6c2c2063616e63656c696e670000000000000000000000000000000000000000602082015250565b7f4f6e6c792066756c6c207061796d656e747320616c6c6f77656400000000000060008201525056fea264697066735822122068c46d3de0ecddc0b507c9b7b35d4b8fc1e5e85de9b6110c16e359af4d5ac95f64736f6c634300080400334372656174696e67206974656d2077697468206964656e7469666965723a202725732720616e642070726963653a2027256427a2646970667358221220d20991636ce552edd615524614102c3aac14229fd41b3866024a33bc224fa2ff64736f6c63430008040033",
    "linkReferences": {},
    "deployedLinkReferences": {}
}